:020000040800F2
:10000000A0050020F10100082B0E0008B30600082F
:10001000290E0008FF020008EF0F00080000000092
:10002000000000000000000000000000F10E0008C9
:1000300001030008000000002D0E0008F30E000868
:100040000B0200080B0200080B0200080B0200085C
:100050000B0200080B0200080B0200080B0200084C
:100060000B0200080B0200080B0200080B0200083C
:100070000B0200080B0200080B0200080B0200082C
:100080000B0200080B0200080B0200080B0200081C
:100090000B0200080B0200080B0200080B0200080C
:1000A0000B0200080B0200080B0200080B020008FC
:1000B0000B0200080B0200080B0200080B020008EC
:1000C0000B0200080B0200080B0200080B020008DC
:1000D0000B020008ED0F00080B0200080B020008DD
:1000E0000B0200080B0200080B0200080B020008BC
:1000F0000B0200080B0200080B0200080B020008AC
:100100000B0200080B0200080B0200080B0200089B
:100110000B0200080B0200080B0200080B0200088B
:100120000B0200080B0200080B0200080B0200087B
:100130000B0200080B0200080B0200080B0200086B
:100140000B0200080B0200080B0200080B0200085B
:100150000B0200080B0200080B0200080B0200084B
:100160000B0200080B0200080B0200080B0200083B
:100170000B0200080B0200080B0200080B0200082B
:100180000B0200080B0200080B0200080B0200081B
:100190000B020008000000000B0200080B02000820
:1001A0000B0200080B0200080B0200080B020008FB
:1001B0000B0200080B0200080B0200080B020008EB
:1001C0000B0200080B0200080B0200080B020008DB
:1001D0000B0200080B020008DFF810D000F05EF8F8
:1001E0000048004759150008AFF30080A005002023
:1001F0000648804706480047FEE7FEE7FEE7FEE7C1
:10020000FEE7FEE7FEE7FEE7FEE7FEE7DD0F00089C
:10021000D9010008D2B201E000F8012B491EFBD23F
:1002200070470022F6E710B513460A460446194601
:10023000FFF7F0FF204610BD2DE9F05F05460020D6
:1002400092469B4688460646814640241BE0284647
:1002500041464746224600F042F853465A46C01AE5
:10026000914110D311461846224600F029F82D1A64
:1002700067EB01084F4622460120002100F020F8DC
:1002800017EB00094E41201EA4F10104DFDC4846B3
:1002900031462A464346BDE8F09F0000064C074D14
:1002A00006E0E06840F0010394E807009847103446
:1002B000AC42F6D3FFF794FF08180008281800088E
:1002C000202A04DB203A00FA02F100207047914016
:1002D000C2F1200320FA03F3194390407047202A0B
:1002E00004DB203A21FA02F00021704721FA02F3E0
:1002F000D040C2F120029140084319467047FEE702
:10030000704700002DE9F0412B4C2A480025E061A0
:100310002A48C4E9080504F1120101F10A000F4658
:10032000064601F008F8A17C25A000F061FEA07C43
:100330006A280AD0A57529A000F05AFE3946304631
:1003400000F0F9FF0120BDE8F0810120A0752BA08D
:1003500000F04EFE0121304601F07CF804F1130557
:100360002946304601F069F8E07C0028F8D10121E7
:10037000304600F0C9FF0121304601F089F8012123
:10038000304601F025F80021304601F0AFF8062193
:10039000304601F034F80121304601F090F8112187
:1003A000304601F0BAF8A821304600F0C9FF00201D
:1003B000C9E70000710400081000002019040008BB
:1003C000414343454C45524F4D45544552204944C5
:1003D000203D202578200A0D0000000041434345C0
:1003E0004C45524F4D45544552204953204E4F5491
:1003F00020574F524B494E470A0D00004143434599
:100400004C45524F4D4554455220495320574F5269
:100410004B494E470A0D000070B54FF090454FF420
:100420008074AC6211488668C6F34006002EFAD08C
:1004300041F080010173816811F0010FFBD0C168A8
:1004400000210EE08668C6F34006002EFAD0AA26E8
:100450000673866816F0010FFBD0C6685654491C17
:1004600089B29942EED3AC61002070BD00300140EA
:1004700070B54FF090454FF48074AC6211488668B7
:10048000C6F34006002EFAD001F07F0101738168A7
:1004900011F0010FFBD0C16800210DE08668C6F3A2
:1004A0004006002EFAD0565C0673866816F0010FDF
:1004B000FBD0C668491C89B29942EFD3AC610020D9
:1004C00070BD00000030014006498A68C2F3400256
:1004D000002AFAD00873886810F0010FFBD0C868B2
:1004E000C0B270470038004010B500F06BF80A4900
:1004F000884204D1BDE8104008A000F079BD13483F
:1005000000F076FD00F05EF8014611A000F070FDED
:10051000BDE8104000F090B8103254765349474E71
:100520004154555245204D4154434845442C204C9C
:100530004F4144494E4720414C4C20434F4E464981
:100540004755524154494F4E2E0A0D00C01700081E
:100550005349473D25780A0D0000000078B505464F
:1005600016480091C0684FF090441020A06203200C
:1005700000F070F8124B18709DF8010000F06AF856
:1005800018709DF8000000F065F818700020034610
:100590006E46009005E0AA2000F05CF8F0545B1C69
:1005A000DBB2AB42F7D31020A061A06200F062F88A
:1005B000C007FBD11020A061009878BD0038004032
:1005C000040000204FF480710420FFF7C7BF000033
:1005D000F8B517460546009100F060F800F04AF8BB
:1005E0004008C007FAD04FF090461020B0620220B9
:1005F00000F030F80F4C20709DF8010000F02AF850
:1006000020709DF8000000F025F82070009700236E
:100610006F4605E0F85C00F01DF85B1C2070DBB253
:10062000AB42F7D31020B06100F024F8C007FBD133
:10063000F8BD00000400002002494FF4807000F073
:1006400003B80000103254760A4601460420FFF732
:10065000BFBF000006498A68C2F34002002AFAD0F0
:100660000873886810F0010FFBD0C868C0B27047EB
:100670000038004010B54FF09043102098620520DC
:10068000FFF7E8FF044C2070AA20FFF7E3FF20707B
:100690001021996110BD00000400002000B54FF04A
:1006A0009043102098620620FFF7D4FF1020986135
:1006B00000BDFEE7044908B5CA6C0243CA64C96CB0
:1006C0000140009108BD000000100240044908B537
:1006D0008A6D02438A65896D0140009108BD000062
:1006E00000100240044908B50A6E02430A66096E0A
:1006F0000140009108BD000000100240F0B50A68FA
:100700000F2692FAA2F2B2FA82F303248AE00125BC
:100710009D402A407ED04D68012D01D0022D20D170
:100720008D68876892FAA2FCBCFA8CFC4FEA4C0EEA
:1007300004FA0EFC27EA0C0792FAA2FCBCFA8CFC25
:100740004FEA4C0C05FA0CF52F438760CF680D6813
:10075000D0F804C02CEA050C7D434CEA050CC0F827
:1007600004C00F69D0F80CC092FAA2F5B5FA85F56D
:100770004FEA450E04FA0EF52CEA050C92FAA2F5A2
:10078000B5FA85F56D00AF404CEA070CC0F80CC017
:100790004D68022D2FD1FF2A15D8D1F814C0056A53
:1007A00092FAA2F7B7FA87F7BF0006FA07F7BD4338
:1007B00092FAA2F7B7FA87F7BF000CFA07FC45EAEE
:1007C0000C05056217E0D1F814E0476A150A95FA9E
:1007D000A5FCBCFA8CFC4FEA8C0C06FA0CFC95FAD2
:1007E000A5F5B5FA85F5AD0027EA0C070EFA05FE6A
:1007F00047EA0E0747624D68076892FAA2FCBCFA06
:100800008CFC4FEA4C0C04FA0CFE27EA0E0792FA15
:10081000A2F200E005E0B2FA82F2520095402F43C6
:1008200007605B1C0A6832FA03F57FF470AF0020A2
:10083000F0BD00000248806800F00C007047000026
:100840000010024010B5044600F022FB206000F0CA
:10085000EFFA606000F0FCFAA060606800F008FB4E
:10086000E06010BD70B500241F49204D4FF40046D4
:10087000C02803D0B0F5407F1CD019E0D1F8880023
:1008800000F0C00040F440004038B0F5400027D0F0
:10089000402804D080281CD106E0044608E000F07F
:1008A00083F828B12C4603E000F086F800B1344606
:1008B000204670BDD1F888000D4900F4407040F02A
:1008C000407040180CD0B0F5807FE8D0B0F5007FC4
:1008D000EAD000F0DDFA00F0ABFA00F0B9FADCE79C
:1008E00000F0D6FAD9E70000001002400024F4001E
:1008F00000FFFFFC70B5002429492A4D4FF4004643
:10090000032804D00C281AD030282FD040E0D1F88A
:1009100088006FF4403100F0030040F4403040188C
:100920000AD0012836D002282ED000F0B1FA00F00B
:100930007FFA00F09DFA17E000F0AAFA14E0D1F86F
:10094000880000F00C0040F44020001FB0F540206B
:10095000F2D004281ED0082816D000BF00F098FA64
:1009600000F066FA00F074FA044611E0D1F888004D
:1009700000F0300040F440101038B0F54010DBD0EB
:10098000102807D02028E9D100F016F800B134462D
:10099000204670BD00F008F80028F9D02C46F7E793
:1009A000001002400024F40002480068C0F38020D8
:1009B00070470000001002400248D0F89000C0F3D9
:1009C000400070470010024003498A6822F0F0029C
:1009D00002438A60704700000010024010B50368AF
:1009E0000122C3F3801373BBD1E900231A43D1E979
:1009F000033423431A434B691A438B691A43CB6967
:100A00001A430B6A1A4303684FF6BF74A3431A4391
:100A10000260426840F604739A434B6942EA13420B
:100A20008B681A4342608A68B2F5006F03D242684D
:100A300042F4805242600A6AB2F5005F02D1898CAA
:100A400089B201610022C16921F40061C1611046CF
:100A500010BD000001490860704700000800002038
:100A60002DE9F041044600680D46012610F0010F03
:100A700052D12969A868EA690843696911430843A2
:100A800021682E4A114008432060E868616821F41B
:100A9000405101436160A869A16821F4407101439C
:100AA000A1602748844201D1032008E02548844200
:100AB00001D10C2003E02448844203D13020FFF709
:100AC00019FF0BE02148844201D1C02004E02048F6
:100AD00084421AD14FF44070FFF7C4FEA8B1696890
:100AE00099B12A680026EB690B2A0ED8194FD2B2A9
:100AF000B3F5004F57F82220B0FBF2F00FD000EB17
:100B00005100B0FBF1F080B2E0602888E16A80B269
:100B100021F00F010143E1623046BDE8F081400061
:100B200000EB5100B0FBF1F081B24FF6F07201EA38
:100B30000200C1F342010843E6E70000F369FFEF5A
:100B4000003801400044004000480040004C004094
:100B5000005000407817000830B587B02020FFF71C
:100B6000A9FD0120FFF7A6FD0220FFF7A3FD042049
:100B7000FFF7A0FD18216846FFF753FB0121002075
:100B80008024CDE90210CDE90041044D049069466E
:100B90002846FFF7B3FDAC6207B030BD0004004843
:100BA0002DE9F04190B0282106A8FFF73AFB182163
:100BB0006846FFF736FB4FF48050FFF793FD0120A6
:100BC000FFF778FD02252020CDE9000503AA0024C7
:100BD00001260527029582E8D0004FF0904869462B
:100BE0004046FFF78BFD4020CDE90005CDE90254DA
:100BF000CDE9044769464046FFF780FD8020CDE9F6
:100C00000005CDE90254CDE9044769464046FFF7A7
:100C100075FDEF01CDE90254CDE900766946404605
:100C20000494FFF76BFDC8F81870381DCDE9064035
:100C300008A94FF4E06081E8610028020B901020C1
:100C4000CDE90C040720CDE90E40084C06A920464A
:100C5000FFF7C4FE606820F010006060206840F07C
:100C60004000206010B0BDE8F0810000003001407D
:100C70002DE9F04190B0282106A8FFF7D2FA1821FB
:100C80006846FFF7CEFA4FF480473846FFF71EFD5F
:100C90000220FFF70FFD0120FFF70CFD0225781061
:100CA000CDE9000500240526CDE90254DFF8AC802B
:100CB000CDE9044669464046FFF720FDCDE90075C1
:100CC0000127CDE90254CDE9047669464046FFF795
:100CD00015FDA803CDE90005CDE90254CDE9044690
:100CE00069464046FFF70AFDCDE90254EE02694627
:100CF00040460494CDE90067FFF700FDC8F818608E
:100D0000CDE9025410264FF09045694628460494D8
:100D1000CDE90067FFF7F2FCAE614FF48270CDE9D8
:100D200006404FF4E060CDE908047001CDE90A40C7
:100D30001820CDE90C040720CDE90E40084C06A987
:100D40002046FFF74BFE606820F0100060602068CE
:100D500040F04000206010B0BDE8F0810004004881
:100D60000038004030B58FB0202106A8FFF759FAAF
:100D700018216846FFF755FA4FF48020FFF7A6FCCC
:100D80000220FFF797FC4FF48060009002200025BE
:100D9000CDE9020501900720CDE90450204C6946B9
:100DA0002046FFF7ABFC4FF40060009069462046F8
:100DB000FFF7A4FC4FF46130CDE906500C20CDE9DB
:100DC0000A5060010895CDE90C50164C099506A90A
:100DD0002046FFF745FEA06865F35F70A060A0683D
:100DE00020F06060A060206820F000502060606803
:100DF00020F490406060A06820F02A00A060206885
:100E000040F001002060E069C0F340500028FAD0B3
:100E1000E069C0F380500028F5D00FB030BD00006D
:100E20000004004800480040FEE7FEE7704700006D
:100E300005498968054A01F0F0010909515C01F092
:100E40001F01C8407047000000100240A8170008AA
:100E500005498968054A01F4E06102EB112109782E
:100E600001F01F01C840704700100240B817000889
:100E700005498968054A01F4605102EBD1210978DE
:100E800001F01F01C840704700100240B817000869
:100E90001549886800F00C031448042B0DD042104B
:100EA000082B09D00C2B08D1CB6803F00303022BCD
:100EB00005D0032B03D101E0104670471046CA68E5
:100EC000C2F306224243C868C96800F0F00301205B
:100ED00000EB1313B2FBF3F201F0C06100EB5160C1
:100EE0004000B2FBF0F07047001002400024F40014
:100EF00070477047324810B5016821F00F0141F08A
:100F000004010160016801F00F010429FAD12D48A4
:100F100050F8801F21F4807101602B4C206840F450
:100F2000807020602068C0F380200028FAD06068BC
:100F300020F0FE4040F080406060E16845F23250B1
:100F4000224A11400843E060E06840F08070E060B1
:100F5000206840F0807020602068C0F34060002866
:100F6000FAD0A06840F00300A0608020FFF72CFDBD
:100F7000FFF760FC0C28FBD11548016841F0807137
:100F800001601448016841F00101016000214160E5
:100F900041686429FCD30020FFF716FDA06820F407
:100FA000E060A060A06820F46050A0600A48FFF7ED
:100FB00051FDD4F8880020F03000C4F8880010BD3E
:100FC0000020024000700040001002400C80FFF939
:100FD000FCED00E0001000E080FE210A02480168FC
:100FE00041F470010160704788ED00E07047FEE752
:100FF0000FB4054B10B503A9044A029800F018F885
:1010000010BC5DF814FB0000F11200080C00002079
:1010100002E008C8121F08C1002AFAD170477047C1
:10102000002001E001C1121F002AFBD1704700001F
:101030002DE9FF4F8DB09B460F460446002606E083
:1010400025280BD05A460F999047641C761C2078AF
:101050000028F5D111B03046BDE8F08F0025A84634
:101060000122984900E0054314F8013F203B02FAB1
:1010700003F00842F7D120782E2817D114F8010F79
:1010800045F004052A280ED06FF02F022078A0F139
:10109000300109290AD808EB880102EB410100EB75
:1010A0000108641CF2E757F8048B641C20786C2854
:1010B0000DD004DC4C2812D06A2811D104E0742829
:1010C0000DD07A280CD10AE045F4001507E06178CC
:1010D00045F48015814202D1641C05F58015641C1D
:1010E0002078692844D008DC0028B3D0582867D07D
:1010F00063280FD0642808D13AE0702865D073289F
:1011000012D075285AD078285AD05A460F9990474D
:10111000761CD5E017F8040B8DF8000000208DF840
:101120000100E946012003E057F8049B4FF0FF302F
:1011300069074FF0000501D40AE06D1C45450DDA42
:101140008542FADB19F805100029F6D106E06D1C7E
:101150008542FCDB19F805100029F8D12E4404E083
:1011600019F8010B5A460F9990476D1EF8D2A7E067
:101170000A200021CDE90801C5F3025002280CD055
:1011800001CFC117021E71F100020CDA0023D0EB6F
:10119000030063EB01012D2208E0FF1D27F0070784
:1011A000F7E80201EEE72A0504D52B228DF8282066
:1011B00001223CE0EA073AD02022F7E70A2000E0CB
:1011C00010200021CDE9080107E01020002145F0A2
:1011D0000405CDE908014FF00808C5F302500228C4
:1011E00010D001CF00214FF0000A2A0720D5227825
:1011F000702A0DD0DDE908C38CF0100C5CEA030CFA
:101200000CD015E0FF1D27F00707F7E80201EAE719
:1012100040228DF828204FF0010A0CE050EA01032B
:1012200006D030238DF828308DF8292002229246EE
:101230002278582A04D024A20DF120090B9209E04B
:1012400026A2F9E7DDE90823FEF7F6FF0B9B9B5C7E
:1012500009F8013D50EA0102F4D1ADEB090020305C
:101260000890680701D44FF001080899884503DD0C
:101270000898A8EB000000E000208046002506E06A
:101280000AA85A46405D0F9990476D1C761C55453B
:10129000F6DB04E030205A460F999047761CB8F1EF
:1012A0000001A8F10108F5DC05E019F8010B5A4628
:1012B0000F999047761C0899481E08900029F4DC85
:1012C000641CC4E609280100303132333435363726
:1012D0003839616263646566000000003031323382
:1012E0003435363738394142434445460000000022
:1012F0000449C2B28A62CA69C2F3C012002AFAD093
:10130000704700000048004038B50C4605460123F0
:101310006A46122100F08AF800280BD19DF80000DF
:10132000012364F386108DF800006A4612212846D6
:1013300000F0A7F838BD01230A460F2100F076B867
:1013400038B50C46054601236A46162100F06EF8B2
:1013500000283CD19DF80000210961F30510E10946
:1013600061F386108DF8000001236A461621284695
:1013700000F087F800282AD101236A461521284663
:1013800000F054F8002822D19DF80000012364F3F6
:1013900001008DF800006A461521284600F071F81A
:1013A000002814D101236A461321284600F03EF894
:1013B00000280CD19DF80000E10861F341008DF890
:1013C000000001236A461321284600F05AF838BD70
:1013D00038B50C46054601236A46112100F026F86F
:1013E00000280BD19DF80000012364F307108DF84D
:1013F00000006A461121284600F043F838BD38B590
:101400000C46054601236A46112100F00FF800281A
:101410000BD19DF80000012364F343008DF8000018
:101420006A461121284600F02CF838BD30B4D0E9C6
:1014300001542046AC4630BC604738B50C46012309
:101440006A461221FFF7F2FF9DF8001001F001013A
:10145000217038BD38B50C46054601236A46122175
:10146000FFF7E4FF00280BD19DF80000012364F38F
:1014700000008DF800006A461221284600F001F8AD
:1014800038BD30B4846805682046AC4630BC60473F
:1014900038B50C46054601236A461021FFF7C6FF02
:1014A00000280BD19DF80000012364F307108DF88C
:1014B00000006A4610212846FFF7E3FF38BD38B523
:1014C0000C46054601236A461021FFF7AFFF0028AE
:1014D0000BD19DF80000012364F300008DF800009B
:1014E0006A4610212846FFF7CCFF38BD38B50C46B8
:1014F000054601236A461021FFF798FF00280BD10B
:101500009DF80000012364F383008DF800006A4613
:1015100010212846FFF7B5FF38BD38B50C46054603
:1015200001236A461721FFF781FF002812D19DF899
:101530000000210961F3C30064F3461020F00400A9
:1015400040F080008DF8000001236A4617212846EC
:10155000FFF797FF38BD000086B00120FFF7C2F803
:101560004FF08050FFF7B2F8494908684FF6FF0284
:101570001040484A40F4407010430860FFF7BAFC3E
:10158000FFF7EAFAFFF70CFBFFF772FBFFF7EAFB46
:1015900041A0FFF72DFD01A8FFF754F945A0FFF783
:1015A00027FD4AA00199FFF723FD4BA00299FFF701
:1015B0001FFD4CA00399FFF71BFD4DA00499FFF7F9
:1015C00017FD4E48C16811F0030F55D0C16801F0F6
:1015D0000301022952D0C06800F0030003284FD055
:1015E00047A149A0FFF704FDFFF724F9042849D0DB
:1015F000FFF720F9082847D0FFF71CF90C2845D041
:101600003FA147A0FFF7F4FC4B4C4FF48056A66275
:101610009F20FEF759FF494B0025AA201D60FEF7C9
:1016200053FF9870AA20FEF74FFF5870AA20FEF7CC
:101630004BFF1870A6611888A0F58041183919D0A1
:101640003FA141A0FFF7D4FCFEF75CFEFEF74CFF84
:1016500041488021A16100950099491C0091814277
:10166000FAD38021A16200950099491C0091814222
:10167000FAD3EEE739A1E4E73AA1B2E73BA1B0E73C
:101680003BA1AEE739A1BCE739A1BAE739A1B8E778
:101690000CED00E00000FA050A0D444542554747AD
:1016A00020434F4D20504F525420494E49540A0D6B
:1016B00000000000414C4C20434C4F434B2053450D
:1016C0005420544F203D0A0D00000000535953434D
:1016D0004C4B3D257520090048434C4B3D25750A70
:1016E0000D00000050434C4B31203D257509000092
:1016F00050434C4B32203D25750A0D00001002402E
:10170000554E4B4E4F574E00504C4C20434C4F4380
:101710004B20534F555243453D25730900000000AF
:101720004D41494E20434C4F434B20534F55434569
:101730003D25730A0D000000000400480000002051
:10174000556E6B6E6F776E00466C6173682049440E
:101750003D25730A0D000000FFFF0F005732355181
:10176000313238004E4F4E450000000048534900CA
:1017700048534500504C4C0001000000020000009E
:101780000400000006000000080000000A0000003D
:101790000C000000100000002000000040000000CD
:1017A00080000000000100000000000000000000B8
:1017B00001020304060708090000000001020304F7
:1017C0005349474E415455524520444F45534E27A7
:1017D00054204D415443484544210A0D5245534538
:1017E0005454494E4720414C4C20434F4E464947A4
:1017F00055524154494F4E5320746F204445464141
:10180000554C54210A0D0000281800080000002043
:101810001000000010100008381800081000002008
:1018200090050000201000080000000000000000EB
:081830000024F4000000000098
:04000005080001D915
:00000001FF
